:10E000000C944A700C9467700C9467700C94677051
:10E010000C9467700C9467700C9467700C94677024
:10E020000C9467700C9467700C9467700C94677014
:10E030000C9467700C9467700C9467700C94677004
:10E040000C9467700C9467700C9467700C946770F4
:10E050000C9467700C9467700C9467700C946770E4
:10E060000C9467700C9467700C9467700C946770D4
:10E070000C9467700C9467700C9467700C946770C4
:10E080000C9467700C9467700C9467700C946770B4
:10E090000C94677011241FBECFEFD0E1DEBFCDBF5F
:10E0A00011E0A0E0B1E0E0EDF7EE02C005900D92C6
:10E0B000A230B107D9F712E0A2E0B1E001C01D9291
:10E0C000AD30B107E1F70E9484710C94E6730C94B3
:10E0D0000070982F80910201813019F0823041F058
:10E0E00008958091C00085FFFCCF9093C6000895ED
:10E0F0008091C80085FFFCCF9093CE0008951F93B8
:10E10000982F9595959595959595905D8F708A30FA
:10E1100054F4182F105D892F0E946970812F0E947E
:10E1200069701F910895182F195A892F0E946970DC
:10E13000812F0E9469701F910895EF92FF920F93B3
:10E140001F9380910201813069F1823031F080E0CB
:10E150001F910F91FF90EF900895EE24FF24870107
:10E160008091C80087FD17C00894E11CF11C011DB7
:10E17000111D81E4E81682E4F8068FE0080780E0CC
:10E18000180770F3E0910401F09105010995809161
:10E19000C80087FFE9CF8091CE001F910F91FF90BB
:10E1A000EF900895EE24FF2487018091C00087FD41
:10E1B00017C00894E11CF11C011D111D81E4E81633
:10E1C00082E4F8068FE0080780E0180770F3E0911A
:10E1D0000401F091050109958091C00087FFE9CF06
:10E1E0008091C6001F910F91FF90EF9008951F93AB
:10E1F0000E949D70182F0E946970113634F41033FC
:10E200000CF01053812F1F9108951755812F1F91E6
:10E2100008951F930E94F770182F0E94F7701295AF
:10E22000107F810F1F910895982F2091020199234B
:10E2300039F0213031F0223061F091509923C9F743
:10E2400008958091C00087FFFCCF8091C600915057
:10E25000F5CF8091C80087FFFCCF8091CE00915010
:10E26000EDCF1F93182F0E949D70803281F0809116
:10E2700003018F5F80930301853011F01F91089592
:10E28000E0910401F091050109951F91089584E141
:10E290000E946970812F0E94697080E10E946970FC
:10E2A0001F9108950E949D70803271F0809103014A
:10E2B0008F5F80930301853009F00895E091040198
:10E2C000F09105010995089584E10E94697080E14B
:10E2D0000E946970089540E951E08823A1F0A09858
:10E2E00028EE33E0FA013197F1F721503040D1F7B1
:10E2F000A09A28EE33E0FA013197F1F7215030402F
:10E30000D1F7815061F70895FF920F931F93CF9338
:10E31000DF93000081E08093020180E18093C400DC
:10E320001092C5001092C00086E08093C20088E180
:10E330008093C1006898709A989A83E00E946B71EC
:10E34000FF24F3940E949D708033B1F18133B9F1C1
:10E35000803409F454C0813409F45AC0823409F479
:10E3600069C0853409F46CC0803531F1823521F102
:10E37000813511F1853509F469C0863509F471C01C
:10E38000843609F47AC0843709F4E4C0853709F487
:10E3900044C1863709F44AC0809103018F5F80939E
:10E3A0000301853079F6E0910401F09105010995AA
:10E3B0000E949D70803351F60E945271C3CF0E941B
:10E3C0009D70803249F784E10E94697081E40E9467
:10E3D000697086E50E94697082E50E94697080E23A
:10E3E0000E94697089E40E94697083E50E946970E7
:10E3F00080E50E94697080E10E946970A3CF0E944D
:10E400009D708638C8F20E949D700E9452719ACF0A
:10E410000E949D70803809F499C0813809F4F9C0D0
:10E42000823809F40FC1883909F48CC080E00E9459
:10E43000317188CF84E10E9414710E94527182CFA1
:10E4400085E00E9414710E9452717CCF0E949D70E1
:10E45000809306010E949D70809307010E94527173
:10E4600071CF0E949D70803309F4F0C083E00E9458
:10E47000147180E00E94317165CF0E949D7080937D
:10E4800009020E949D708093080280910C028E7F89
:10E4900080930C020E949D70853409F4E8C080913D
:10E4A000080290910902892B89F000E010E00E9497
:10E4B0009D70F801E85FFE4F80830F5F1F4F8091D2
:10E4C0000802909109020817190788F30E949D70AD
:10E4D000803209F061CF80910C0280FFE7C020916B
:10E4E000060130910701220F331F3093070120935B
:10E4F00006018091080290910902892BE1F000E069
:10E5000010E0F801E85FFE4FC90160810E94D973F5
:10E5100020910601309107012F5F3F4F3093070193
:10E52000209306010F5F1F4F80910802909109020E
:10E530000817190730F384E10E94697080E10E9496
:10E54000697000CF83E00E943171FCCE82E00E94AE
:10E550003171F8CE0E949D70809309020E949D70D7
:10E5600080930802209106013091070137FD98C081
:10E5700080910C028D7F80930C02220F331F309309
:10E580000701209306010E949D70853409F482C022
:10E5900080910C028E7F80930C020E949D708032CD
:10E5A00009F0D0CE84E10E94697040910802509138
:10E5B00009024115510509F441C000E010E0209125
:10E5C0000601309107010DC081FF57C02F5F3F4FFB
:10E5D00030930701209306010F5F1F4F04171507A3
:10E5E00068F580910C0280FFEFCFC9010E94D173C2
:10E5F0000E94697020910601309107012F5F3F4F03
:10E6000030930701209306014091080250910902BE
:10E61000E3CF81E00E94317195CE0E949D708032DF
:10E6200009F0BACE84E10E9469708EE10E9469709F
:10E6300086E90E94697081E80E94697080E10E9409
:10E64000697080CE80E10E9431717CCE0E949D7005
:10E650000E949D70182F0E949D70112309F499C08B
:10E66000113009F49AC081E80E9431716BCE80911B
:10E670000C02816080930C0212CFF90184910E94F8
:10E680006970409108025091090220910601309171
:10E6900007019CCF80910C02816080930C027DCF9A
:10E6A00080910C02826080930C0267CF80910701F9
:10E6B0008823880F880B8F2180930B028BBF80915A
:10E6C000060190910701880F991F9093070180938D
:10E6D00006018091080280FF09C080910802909194
:10E6E000090201969093090280930802F894F9991F
:10E6F000FECF1127E0910601F0910701C8E0D1E0BB
:10E700008091080290910902103091F40091570015
:10E7100001700130D9F303E000935700E8950091B0
:10E72000570001700130D9F301E100935700E895DB
:10E73000099019900091570001700130D9F301E060
:10E7400000935700E8951395103898F01127009121
:10E75000570001700130D9F305E000935700E895A8
:10E760000091570001700130D9F301E10093570087
:10E77000E8953296029709F0C7CF103011F0029653
:10E78000E5CF112484E10E94697080E10E946970E4
:10E79000D9CD8EE10E943171D5CD86E90E943171CB
:10E7A000D1CDF999FECF92BD81BDF89A992780B558
:10E7B0000895262FF999FECF92BD81BD20BD0FB6D9
:10E7C000F894FA9AF99A0FBE01960895F894FFCF3B
:02E7D0008000C7
:040000030000E00019
:00000001FF
